:060000000A128A11FC2F18
:100F6C0083160313880101308312031388000800D1
:100F7C00F001F101F201F20A0A128A11B6270A12E3
:100F8C008A110130F0070318F10A0030F1075130D3
:100F9C007006C33003197106031DD52FD62FC72F2A
:100FAC00F001F10172080319DC2FDD2FEA2F031079
:100FBC0083120313880D0808031DE52FE62FF82F65
:100FCC0080308800F201C72F031083120313880CA2
:100FDC000808031DF22FF32FF82F01308800F201BF
:100FEC00F20AC72FC72F0A128A11002883010A128E
:040FFC008A11BE2F69
:08400000FF3FFF3FFF3FFF3FC0
:02400E00FB3F76
:00000001FF
