:100000000A128A11F62F00308A000408840A820737
:06001000003420344E34E0
:100C6C0001348316031306083F38860008008312EC
:100C7C00031388018316031388010A128A1137267D
:100C8C000A128A110800F1007108031D4E2E4F2E16
:100C9C00542E8312031306083F39722E3F308312F1
:100CAC0003130605F0003F30700603195E2E5F2E0D
:100CBC00662E7B080319632E642E662EFB014F2EC5
:100CCC003F300605F0003F307006031D6E2E6F2E70
:100CDC00712EFB01FB0A3F300800F801F601F70109
:100CEC00F901FA01F401F5010A128A113D260A12E2
:100CFC008A1101300A128A1149260A128A11F3004C
:100D0C003E307306031D8B2E8C2E962E7803031902
:100D1C00902E912E962E0130F800F901FA01C52E75
:100D2C003D307306031D9B2E9C2EA52E023078069B
:100D3C000319A12EA22EA52E0230F800932E3B30C3
:100D4C007306031DAA2EAB2EB62E0330780603199C
:100D5C00B02EB12EB62E0330F800F601F701C52ED9
:100D6C0037307306031DBB2EBC2EC52E04307806FF
:100D7C000319C12EC22EC52E0430F800B32E4E30EE
:100D8C0075022030031974020318CD2ECE2ED52EE9
:100D9C000130F4070318F50A0030F5077F2EF40133
:100DAC00F5017803031DDB2EDC2E6C2F00307A024C
:100DBC000830031979020318E42EE52EFB2E0130BE
:100DCC00F200790AEB2E0310F20DFF3E031DE92E03
:100DDC007208FF007F088312031388040130F9079F
:100DEC000318FA0A0030FA077F2E00307A02083016
:100DFC0003197902031C032F042F202F00307A02D1
:100E0C0010300319790203180C2F0D2F202F0130ED
:100E1C00F2007908F83E013E152F0310F20DFF3E4B
:100E2C00031D132F7208FF3AFF007F088312031370
:100E3C008805F42E00307A02103003197902031C55
:100E4C00282F292F442F00307A02183003197902E9
:100E5C000318312F322F442F0130F2007908173C40
:100E6C00013E3A2F0310F20DFF3E031D382F72087E
:100E7C00FF007F08831203138804F42E00307A02DB
:100E8C00183003197902031C4C2F4D2F692F003099
:100E9C007A022030031979020318552F562F692F27
:100EAC000130F20079081F3C013E5E2F0310F20D59
:100EBC00FF3E031D5C2F7208FF3AFF007F08831270
:100ECC0003138805F42EF901FA017F2E02307806FF
:100EDC00031D712F722FB02F00307A0208300319C6
:100EEC00790203187A2F7B2F8B2F0130F200790AAD
:100EFC00812F0310F20DFF3E031D7F2F7208FF00A0
:100F0C007F08831203138804F42E00307A02083011
:100F1C0003197902031C932F942F692F00307A0246
:100F2C0010300319790203189C2F9D2F692F013063
:100F3C00F2007908F83E013EA52F0310F20DFF3E9A
:100F4C00031DA32F7208FF3AFF007F0883120313BF
:100F5C008805F42E03307806031DB52FB62FD22F3B
:100F6C0076087704031DBB2FBC2FCB2F5530831273
:100F7C00031388000130F6000030F7000130F90748
:100F8C000318FA0A0030FA077F2EAA3083120313D3
:100F9C008800F601F701F42E04307806031DD72FD4
:100FAC00D82FF22F76087704031DDD2FDE2FED2FBF
:100FBC000F308312031388000130F6000030F70065
:100FCC000130F9070318FA0A0030FA077F2EF030C7
:100FDC00831203138800CF2F7F2E0A128A11002848
:100FEC000A128A1136260A128A11FB0083010A1290
:040FFC008A11732EB5
:08400000FF3FFF3FFF3FFF3FC0
:02400E00FB3F76
:00000001FF
