:060000000A128A11FC2F18
:100EA4008316031388018312031388010800F101D8
:100EB400F201F3010A128A1152270A128A1101302F
:100EC400F1070318F20A0030F20751307106C330FB
:100ED40003197206031D6F2F702F612FF101F201A8
:100EE400083073020318772F782F8C2F0130F0000D
:100EF400730A7E2F0310F00DFF3E031D7C2F700834
:100F0400FF007F088312031388040130FF007F0869
:100F1400F307612F08307302031C912F922FAF2F18
:100F2400103073020318972F982FAF2F0130F00061
:100F34007308F83E013EA02F0310F00DFF3E031D81
:100F44009E2F7008FF3AFF007F0883120313880561
:100F54000130FF007F08F307612F10307302031C78
:100F6400B42FB52FD12F183073020318BA2FBB2F0B
:100F7400D12F0130F0007308173C013EC32F03103A
:100F8400F00DFF3E031DC12F7008FF007F08831280
:100F9400031388040130FF007F08F307612F183022
:100FA4007302031CD62FD72FF42F2030730203189B
:100FB400DC2FDD2FF42F0130F00073081F3C013EBD
:100FC400E52F0310F00DFF3E031DE32F7008FF3AD9
:100FD400FF007F088312031388050130FF007F0898
:100FE400F307612FF301831203138801612F0A129F
:0C0FF4008A11002883010A128A11592F6B
:08400000FF3FFF3FFF3FFF3FC0
:02400E00FB3F76
:00000001FF
